:1000000033C0000044C0000042C0000040C00000F7
:100010003EC000003CC000003AC0000038C00000F4
:1000200036C0000034C0000032C0000030C0000004
:100030002EC000002CC000002AC0000028C0000014
:1000400026C0000024C0000022C0000020C0000024
:100050001EC000001CC000001AC0000018C0000034
:1000600016C0000014C0000011241FBECFEFD4E062
:10007000DEBFCDBF11E0A0E0B1E0ECE8F1E002C0EE
:1000800005900D92A033B107D9F702D07DC0B8CF4B
:100090008FEF84B928D080E091E044D08091C000F7
:1000A00053D06FD089E091E03DD08091C1004CD019
:1000B00068D082E191E036D08091C20045D061D015
:1000C0008BE191E02FD08091C5003ED05AD084E2E0
:1000D00091E028D08091C40037D053D01CD0C82FD5
:1000E00013D0C5B9FBCF1092C5008CE08093C4003B
:1000F000E0ECF0E080818260808388E18093C10041
:1001000086E08093C20008959091C00095FFFCCFD7
:100110008093C60008958091C00087FFFCCF809136
:10012000C60008951F93CF93DF93EC0110E0FE010A
:10013000E10FF11D8081882319F0E6DF1F5FF7CF03
:10014000DF91CF911F9108951F93CF93DF931F925B
:10015000CDB7DEB7898317E0898190E0012E02C018
:10016000959587950A94E2F780FF02C081E301C06C
:1001700080E3CADF115080F70F90DF91CF911F917C
:0C01800008958DE291E0CECFF894FFCFFF
:10018C005543535230413A20005543535230423A72
:10019C0020005543535230433A20005542525230BE
:1001AC00483A200055425252304C3A20000D0A0079
:00000001FF
