:100000000C9434000C9451000C9451000C94510049
:100010000C9451000C9451000C9451000C9451001C
:100020000C9451000C9451000C9451000C9451000C
:100030000C9451000C9451000C9451000C945100FC
:100040000C9451000C9451000C9451000C945100EC
:100050000C9451000C9451000C9451000C945100DC
:100060000C9451000C94510011241FBECFEFD4E02A
:10007000DEBFCDBF11E0A0E0B1E0EEE2FBE002C0E8
:1000800005900D92A439B107D9F711E0A4E9B1E0C8
:1000900001C01D92A839B107E1F70E94E8000C9455
:1000A00095050C940000809184002FEF3FE193E0D0
:1000B000215030409040E1F700C00000882341F01B
:1000C000EFEFF9E03197F1F700C000008150F6CF73
:1000D00008951092C5008CE08093C400E0ECF0E03D
:1000E00080818260808388E18093C10086E0809374
:1000F000C20008959091C00095FFFCCF8093C60088
:1001000008958091C00087FFFCCF8091C6000895BC
:10011000CF93DF93EC018991882319F00E947A0034
:10012000FACFDF91CF9108950E94880080E991E095
:100130000C9488000F931F93CF93DF938C0184E17D
:1001400090E00E944A01EC014AE050E0BC01C80185
:100150000E947102CE010E948800CE01DF91CF91F2
:100160001F910F910C94E2010F931F93CF93DF9394
:100170008C0180E490E00E944A01EC0142E050E0F2
:10018000BC01C8010E947102CE010E948800CE010C
:10019000DF91CF911F910F910C94E2010F931F9368
:1001A000CF93DF938C0180E490E00E944A01EC0140
:1001B00040E150E0BC01C8010E947102CE010E94E2
:1001C0008800CE01DF91CF911F910F910C94E20135
:1001D000CF93DF93CDB7DEB764970FB6F894DEBF49
:1001E0000FBECDBF0E946900809181008560809321
:1001F00081008FEF84B982E088B986E091E00E94A7
:10020000940082E991E00E94940088E291E00E94CB
:100210009400DD24DA9483E6E82E81E0F82E94E160
:10022000C92E8E010F5F1F4F0E94810082E491E072
:100230000E9494000E945300D5B88FE491E00E9480
:1002400094001092850010928400319905C083E5D6
:1002500091E00E94940018C03199FECF80918400F3
:10026000909185009F938F93FF92EF921F92CF9270
:100270001F930F930E949202C8010E9494000FB630
:10028000F894DEBF0FBECDBF15B881E791E00E94A4
:100290009400CACFCF93DF938230910510F482E0AF
:1002A00090E0E0919601F091970120E030E0A0E02D
:1002B000B0E0309739F14081518148175907B8F0C3
:1002C0004817590771F482819381109729F013968A
:1002D0009C938E9312972CC09093970180939601D4
:1002E00027C02115310531F04217530718F0A90135
:1002F000DB0101C0EF019A01BD01DF010280F38142
:10030000E02DD7CF21153105F9F0281B390B24300A
:10031000310580F48A819B816115710521F0FB0113
:100320009383828304C09093970180939601FE018A
:10033000329644C0FE01E20FF31F81939193225045
:100340003109398328833AC0209194013091950175
:10035000232B41F420910201309103013093950148
:100360002093940120910001309101012115310564
:1003700041F42DB73EB74091040150910501241B73
:10038000350BE0919401F0919501E217F307A0F489
:100390002E1B3F0B2817390778F0AC014E5F5F4FDB
:1003A0002417350748F04E0F5F1F50939501409377
:1003B00094018193919302C0E0E0F0E0CF01DF91DE
:1003C000CF910895CF93DF93009709F487C0FC0184
:1003D000329713821282C0919601D0919701209793
:1003E00081F420813181280F391F809194019091EF
:1003F00095018217930779F5F0939501E0939401A5
:100400006DC0DE0120E030E0AE17BF0750F4129659
:100410004D915C9113979D014115510509F1DA0148
:10042000F3CFB383A28340815181840F951F8A1734
:100430009B0771F48D919C911197840F951F0296E3
:100440009183808312968D919C91139793838283DD
:100450002115310529F4F0939701E09396013EC0F0
:10046000D9011396FC93EE9312974D915D91A40FD1
:10047000B51FEA17FB0779F480819181840F951FDE
:100480000296D90111969C938E9382819381139643
:100490009C938E931297E0E0F0E08A819B81009715
:1004A00019F0FE01EC01F9CFCE01029628813981C5
:1004B000820F931F209194013091950128173907DD
:1004C00069F4309729F4109297011092960102C0B6
:1004D00013821282D0939501C0939401DF91CF9142
:1004E0000895FB019F01E8944230C4F04532B4F412
:1004F0004A3029F497FB1EF4909581959F4F642F05
:1005000077270E944A05805D8A330CF0895D8193CC
:10051000CB010097A1F716F45DE251931082C90157
:100520000C94AA04AEE0B0E0E8E9F2E00C946C05AB
:100530000D891E898F89988D26E02C831A83098363
:1005400097FF02C080E090E801979E838D83AE0103
:10055000455E5F4F698D7A8DCE0101960E94C20281
:100560004D815E8157FD0AC02F81388542175307A0
:100570000CF49A01F801E20FF31F10822E96E4E0CA
:100580000C948805ACE0B0E0E8ECF2E00C945E0579
:100590007C016B018A01FC0117821682838181FF35
:1005A000BDC1CE0101964C01F7019381F60193FD87
:1005B000859193FF81916F01882309F4ABC1853246
:1005C00039F493FD859193FF81916F01853229F470
:1005D000B70190E00E94BA04E7CF512C312C20E003
:1005E0002032A0F48B3269F030F4803259F083323B
:1005F00069F420612CC08D3239F0803339F42160E8
:1006000026C02260246023C0286021C027FD27C0A7
:1006100030ED380F3A3078F426FF06C0FAE05F9EDE
:10062000300D1124532E13C08AE0389E300D112452
:10063000332E20620CC08E3221F426FD6BC1206463
:1006400006C08C3611F4206802C0883641F4F601E9
:1006500093FD859193FF81916F018111C1CF982FF7
:100660009F7D9554933028F40C5F1F4FFFE3F9836F
:100670000DC0833631F0833771F0833509F05BC0EC
:1006800022C0F801808189830E5F1F4F4424439468
:10069000512C540115C03801F2E06F0E711CF801A5
:1006A000A080B18026FF03C0652D70E002C06FEF0F
:1006B0007FEFC5012C870E949F042C0183012C85AC
:1006C0002F77222E17C03801F2E06F0E711CF8014F
:1006D000A080B18026FF03C0652D70E002C06FEFDF
:1006E0007FEFC5012C870E9494042C012C85206883
:1006F000222E830123FC1BC0832D90E0481659064F
:10070000B0F4B70180E290E00E94BA043A94F4CFCA
:10071000F50127FC859127FE81915F01B70190E0EB
:100720000E94BA0431103A94F1E04F1A5108411472
:10073000510471F7E5C0843611F0893639F5F801B6
:1007400027FF07C060817181828193810C5F1F4FF9
:1007500008C060817181882777FD8095982F0E5F92
:100760001F4F2F76B22E97FF09C0909580957095F8
:1007700061957F4F8F4F9F4F2068B22E2AE030E067
:10078000A4010E94EC04A82EA81844C0853729F4BF
:100790002F7EB22E2AE030E025C0F22FF97FBF2E47
:1007A0008F36C1F018F4883579F0B4C0803719F06D
:1007B000883721F0AFC02F2F2061B22EB4FE0DC0BC
:1007C0008B2D8460B82E09C024FF0AC09F2F96602D
:1007D000B92E06C028E030E005C020E130E002C0BC
:1007E00020E132E0F801B7FE07C0608171818281AB
:1007F00093810C5F1F4F06C06081718180E090E0A3
:100800000E5F1F4FA4010E94EC04A82EA818FB2D18
:10081000FF77BF2EB6FE0BC02B2D2E7FA51450F4F4
:10082000B4FE0AC0B2FC08C02B2D2E7E05C07A2C67
:100830002B2D03C07A2C01C0752C24FF0DC0FE01A6
:10084000EA0DF11D8081803311F4297E09C022FF59
:1008500006C07394739404C0822F867809F0739451
:1008600023FD13C020FF06C05A2C731418F4530C38
:100870005718732C731468F4B70180E290E02C874A
:100880000E94BA0473942C85F5CF731410F43718B2
:1008900001C0312C24FF12C0B70180E390E02C8707
:1008A0000E94BA042C8522FF17C021FF03C088E5EF
:1008B00090E002C088E790E0B7010CC0822F8678F4
:1008C00059F021FD02C080E201C08BE227FD8DE2DC
:1008D000B70190E00E94BA04A51438F4B70180E390
:1008E00090E00E94BA045A94F7CFAA94F401EA0D5A
:1008F000F11D8081B70190E00E94BA04A110F5CFEC
:10090000332009F451CEB70180E290E00E94BA048E
:100910003A94F6CFF7018681978102C08FEF9FEF5F
:100920002C96E2E10C947A05FC0105906150704030
:100930000110D8F7809590958E0F9F1F0895FC01A8
:100940006150704001900110D8F7809590958E0FFE
:100950009F1F0895DC01FC01672F71917723E1F758
:10096000329704C07C916D9370836291AE17BF077C
:10097000C8F308950F931F93CF93DF93182F092F78
:10098000EB018B8181FD03C08FEF9FEF20C082FFC1
:1009900010C04E815F812C813D81421753077CF44A
:1009A000E881F9819F012F5F3F4F398328831083AE
:1009B00006C0E885F985812F0995892B29F72E81B5
:1009C0003F812F5F3F4F3F832E83812F902FDF91F9
:1009D000CF911F910F910895FA01AA27283051F164
:1009E000203181F1E8946F936E7F6E5F7F4F8F4F60
:1009F0009F4FAF4FB1E03ED0B4E03CD0670F781FBF
:100A0000891F9A1FA11D680F791F8A1F911DA11DA3
:100A10006A0F711D811D911DA11D20D009F46894DC
:100A20003F912AE0269F11243019305D3193DEF684
:100A3000CF010895462F4770405D4193B3E00FD03A
:100A4000C9F7F6CF462F4F70405D4A3318F0495D25
:100A500031FD4052419302D0A9F7EACFB4E0A69508
:100A60009795879577956795BA95C9F7009761052A
:100A7000710508959B01AC010A2E06945795479580
:100A800037952795BA95C9F7620F731F841F951F75
:100A9000A01D0895AA1BBB1B51E107C0AA1FBB1FC5
:100AA000A617B70710F0A61BB70B881F991F5A95FA
:100AB000A9F780959095BC01CD0108952F923F92A2
:100AC0004F925F926F927F928F929F92AF92BF925E
:100AD000CF92DF92EF92FF920F931F93CF93DF930A
:100AE000CDB7DEB7CA1BDB0B0FB6F894DEBF0FBE67
:100AF000CDBF09942A88398848885F846E847D84B4
:100B00008C849B84AA84B984C884DF80EE80FD80B5
:100B10000C811B81AA81B981CE0FD11D0FB6F8942B
:0E0B2000DEBF0FBECDBFED010895F894FFCFEC
:100B2E000000980120002D2D2D3D3D3D3D3D2052D4
:100B3E0065616374696F6E2074696D657221203D05
:100B4E003D3D3D3D2D2D2D00507265737320616E20
:100B5E0079206B657920746F2073746172742E2EF8
:100B6E002E004765742072656164792E2E2E004723
:100B7E006F210059656168207269676874206D6124
:100B8E006E2E00596F7520746F6F6B2025646D7318
:100B9E0000507265737320616E7920627574746F84
:100BAE006E20746F20706C617920616761696E00D0
:040BBE000D0A00001C
:00000001FF
