:100000000EC01DC04DC01BC01AC019C018C017C0FB
:1000100016C015C014C013C012C011C010C01124E6
:100020001FBECFE5D2E0DEBFCDBF10E0A0E6B0E05E
:1000300001C01D92A336B107E1F754D07DC0E0CFD7
:100040008BB780628BBFA99A08958AB583608ABDF9
:100050008AB580688ABD83B7816083BF08953D9A61
:1000600086B1836086B9379A089527B1207F27B972
:10007000833069F020F4823059F491E009C0843073
:1000800021F0853029F490E003C092E001C093E0B4
:1000900087B1892B87B9369A3699FECF85B10895F5
:1000A0001F920F920FB60F9211248F939F938091FE
:1000B0006200882351F080916100882331F08091A3
:1000C000600091E08927809360008091620091E058
:1000D0008927809362009F918F910F900FBE0F90A0
:1000E0001F901895ADDFB1DFBADF789481E080937F
:1000F00062008093600010926100C1E084E0B5DF8F
:10010000182F82E0B2DFD82F83E0AFDF181718F482
:10011000C093610004C010926100C09360008091A0
:100120006100882339F080916000882319F0B89A23
:0C013000D9BDE4CFB898E2CFF894FFCF1F
:00000001FF
