:100000000C9434000C945A000C9451000C94510040
:100010000C9451000C9451000C9451000C9451001C
:100020000C9451000C9451000C9451000C9451000C
:100030000C9451000C9451000C9451000C945100FC
:100040000C9451000C9451000C9451000C945100EC
:100050000C9451000C9451000C9451000C945100DC
:100060000C9451000C94510011241FBECFEFD4E02A
:10007000DEBFCDBF11E0A0E0B1E0ECE6F6E002C0EB
:1000800005900D92AA30B107D9F711E0AAE0B1E0CE
:1000900001C01D92A031B107E1F70E946E010C94DE
:1000A00034030C940000E9E6F0E0808183608083F3
:1000B000E89A08951F920F920FB60F9211248F9312
:1000C0009F9380910B01882331F080910A0191E088
:1000D000892780930A019F918F910F900FBE0F90F7
:1000E0001F901895A0E8B0E08C9183608C93E1E8B4
:1000F000F0E08081886080838C9180688C9380811F
:10010000816080830895ECE7F0E0808180648083E3
:10011000EAE7F0E08081836080838081806880836B
:10012000089590917C00907F90937C0090917C004A
:10013000982B90937C0080917A00806480937A0061
:1001400080917A0086FDFCCF8091780090917900B3
:1001500008951092C5008CE08093C400E0ECF0E0BC
:1001600080818260808388E18093C10086E08093F3
:10017000C20008959091C00095FFFCCF8093C60007
:1001800008958091C00087FFFCCF8091C60008953C
:10019000CF92DF92EF92FF920F931F93CF93DF9353
:1001A0007C018B010E94C1006701C0E0D0E00150DA
:1001B00011098D3061F4CE0DDF1D1882DF91CF91D2
:1001C0001F910F91FF90EF90DF90CF900895C0178F
:1001D000D1078CF72196F60181936F010E94C1002F
:1001E000E8CFCF93DF93CDB7DEB72B970FB6F89458
:1001F000DEBF0FBECDBF6BE070E0CE0101960E9466
:10020000C800CE0101960E94C9022B960FB6F89441
:10021000DEBF0FBECDBFDF91CF910895CF93DF93A7
:10022000EC018991882319F00E94BA00FACFDF917E
:10023000CF9108950E940E0186E091E00C940E018A
:100240000F931F93CF93DF938C0184E190E00E9482
:10025000A201EC014AE050E0BC01C8010E94E702A3
:10026000CE010E940E01CE01DF91CF911F910F911F
:100270000C943A020F931F93CF93DF938C0180E489
:1002800090E00E94A201EC0142E050E0BC01C801F4
:100290000E94E702CE010E940E01CE01DF91CF91B4
:1002A0001F910F910C943A020F931F93CF93DF93FA
:1002B0008C0180E490E00E94A201EC0140E150E05A
:1002C000BC01C8010E94E702CE010E940E01CE01CE
:1002D000DF91CF911F910F910C943A02469A0E94A0
:1002E00072000E9483000E945300789481E0809302
:1002F0000A0110920B0180E00E9491008C0181E0C4
:100300000E949100EC0182E00E94910008171907F9
:1003100024F481E080930B0105C010920B0181E071
:1003200080930A0180910B01882351F080910A018A
:10033000882331F0219AD0938900C0938800DBCFC5
:100340002198D9CFCF93DF938230910510F482E0CA
:1003500090E0E0910E01F0910F0120E030E0A0E08C
:10036000B0E0309739F14081518148175907B8F012
:100370004817590771F482819381109729F01396D9
:100380009C938E9312972CC090930F0180930E0133
:1003900027C02115310531F04217530718F0A90184
:1003A000DB0101C0EF019A01BD01DF010280F38191
:1003B000E02DD7CF21153105F9F0281B390B24305A
:1003C000310580F48A819B816115710521F0FB0163
:1003D0009383828304C090930F0180930E01FE01EA
:1003E000329644C0FE01E20FF31F81939193225095
:1003F0003109398328833AC020910C0130910D01D5
:10040000232B41F4209102013091030130930D011F
:1004100020930C012091000130910101211531053B
:1004200041F42DB73EB74091040150910501241BC2
:10043000350BE0910C01F0910D01E217F307A0F4E8
:100440002E1B3F0B2817390778F0AC014E5F5F4F2A
:100450002417350748F04E0F5F1F50930D0140934E
:100460000C018193919302C0E0E0F0E0CF01DF91B5
:10047000CF910895CF93DF93009709F487C0FC01D3
:10048000329713821282C0910E01D0910F012097F2
:1004900081F420813181280F391F80910C019091C6
:1004A0000D018217930779F5F0930D01E0930C018C
:1004B0006DC0DE0120E030E0AE17BF0750F41296A9
:1004C0004D915C9113979D014115510509F1DA0198
:1004D000F3CFB383A28340815181840F951F8A1784
:1004E0009B0771F48D919C911197840F951F029633
:1004F0009183808312968D919C911397938382832D
:100500002115310529F4F0930F01E0930E013EC04F
:10051000D9011396FC93EE9312974D915D91A40F20
:10052000B51FEA17FB0779F480819181840F951F2D
:100530000296D90111969C938E9382819381139692
:100540009C938E931297E0E0F0E08A819B81009764
:1005500019F0FE01EC01F9CFCE0102962881398114
:10056000820F931F20910C0130910D01281739073C
:1005700069F4309729F410920F0110920E0102C015
:1005800013821282D0930D01C0930C01DF91CF91A1
:100590000895FC0188279927E89421912032E9F3F6
:1005A000293010F02E30C8F32B3241F02D3239F4BF
:1005B000689404C00E940803820F911D219120536A
:1005C0002A30C0F31EF4909581959F4F0895FB014A
:1005D0009F01E8944230C4F04532B4F44A3029F423
:1005E00097FB1EF4909581959F4F642F77270E946B
:1005F0002003805D8A330CF0895D8193CB010097E5
:10060000A1F716F45DE251931082C9010C94100316
:100610007AE0979F902D879F802D910D112408954A
:10062000DC01FC01672F71917723E1F7329704C059
:100630007C916D9370836291AE17BF07C8F30895E4
:10064000AA1BBB1B51E107C0AA1FBB1FA617B707F8
:1006500010F0A61BB70B881F991F5A95A9F7809514
:0C0660009095BC01CD010895F894FFCFE7
:0A066C000000100120000D0A00003C
:00000001FF
