:1000000033C0000044C0000042C0000040C00000F7
:100010003EC000003CC000003AC0000038C00000F4
:1000200036C0000034C0000032C0000030C0000004
:100030002EC000002CC000002AC0000028C0000014
:1000400026C0000024C0000022C0000020C0000024
:100050001EC000001CC000001AC0000018C0000034
:1000600016C0000014C0000011241FBECFEFD4E062
:10007000DEBFCDBF11E0A0E0B1E0EAEFF1E002C0E9
:1000800005900D92A630B107D9F716D0B4C0B8CFFD
:1000900090917C00907F982B90937C0080917A00C7
:1000A000806480937A0080917A0086FDFCCF8091F5
:1000B000780090917900089580917C00806480930D
:1000C0007C0080917A00836080937A0080917A002E
:1000D000806880937A008FEF84B91DD0FF24FA9452
:1000E00083E0D6DFEC0180E0D3DF8C01CE013DD090
:1000F00080E091E028D0C80138D066D00C171D07E9
:1001000010F4F5B801C015B887EA91E60197F1F748
:1001100000C00000E5CF1092C5008CE08093C400C1
:10012000E0ECF0E080818260808388E18093C10010
:1001300086E08093C20008959091C00095FFFCCFA7
:100140008093C60008951F93CF93DF93EC0110E0D6
:10015000FE01E10FF11D8081882319F0EDDF1F5FA3
:10016000F7CFDF91CF911F9108950F931F93CF93F6
:10017000DF93EC0160E177E22AD080E3860FDCDFD9
:10018000CE0168EE73E023D0CB010AE010E0B801A5
:100190001ED0805DD1DFCE0164E670E018D0CB01C7
:1001A000B80115D0805DC8DFCE01B80110D0C82FCE
:1001B000CB01B8010CD0805DBFDF80E38C0FDF91F5
:1001C000CF911F910F91B8CF83E091E0BCCFAA1BD4
:1001D000BB1B51E107C0AA1FBB1FA617B70710F032
:1001E000A61BB70B881F991F5A95A9F78095909564
:0A01F000BC01CD010895F894FFCF83
:0601FA002020000D0A00A8
:00000001FF
