:100000000C9434000C9451000C9451000C94510049
:100010000C9451000C9451000C9451000C9451001C
:100020000C9451000C9451000C9451000C9451000C
:100030000C9451000C9451000C9451000C945100FC
:100040000C9451000C9451000C9451000C945100EC
:100050000C9451000C9451000C9451000C945100DC
:100060000C9451000C94510011241FBECFEFD4E02A
:10007000DEBFCDBF11E0A0E0B1E0ECE7F4E002C0EC
:1000800005900D92AA30B107D9F711E0AAE0B1E0CE
:1000900001C01D92AE30B107E1F70E94B8000C9488
:1000A0003C020C9400001092C5008CE08093C400C8
:1000B000E0ECF0E080818260808388E18093C10081
:1000C00086E08093C20008959091C00095FFFCCF18
:1000D0008093C60008958091C00087FFFCCF809177
:1000E000C6000895CF93DF93EC018991882319F01E
:1000F0000E946400FACFDF91CF9108950E947200B0
:1001000086E091E00C9472000F931F93CF93DF93DE
:100110008C0184E190E00E94D000EC014AE050E0C4
:10012000BC01C8010E94F701CE010E947200CE01FD
:10013000DF91CF911F910F910C9468010F931F9342
:10014000CF93DF938C0180E490E00E94D000EC011B
:1001500042E050E0BC01C8010E94F701CE010E94BC
:100160007200CE01DF91CF911F910F910C94680125
:10017000389ACFEFC4B9419A0E9453008FE40E948D
:100180006400C5B92FE38DE093E02150804090409A
:10019000E1F700C0000015B83199FECF88E5EFCF38
:1001A000CF93DF938230910510F482E090E0E091EC
:1001B0000C01F0910D0120E030E0A0E0B0E03097BC
:1001C00039F14081518148175907B8F0481759074C
:1001D00071F482819381109729F013969C938E93EA
:1001E00012972CC090930D0180930C0127C021150C
:1001F000310531F04217530718F0A901DB0101C0A6
:10020000EF019A01BD01DF010280F381E02DD7CF1C
:1002100021153105F9F0281B390B2430310580F404
:100220008A819B816115710521F0FB019383828393
:1002300004C090930D0180930C01FE01329644C0DE
:10024000FE01E20FF31F819391932250310939830C
:1002500028833AC020910A0130910B01232B41F4ED
:10026000209102013091030130930B0120930A0188
:1002700020910001309101012115310541F42DB784
:100280003EB74091040150910501241B350BE091CC
:100290000A01F0910B01E217F307A0F42E1B3F0BAC
:1002A0002817390778F0AC014E5F5F4F24173507E8
:1002B00048F04E0F5F1F50930B0140930A0181934A
:1002C000919302C0E0E0F0E0CF01DF91CF9108957B
:1002D000CF93DF93009709F487C0FC013297138214
:1002E0001282C0910C01D0910D01209781F42081E0
:1002F0003181280F391F80910A0190910B018217DB
:10030000930779F5F0930B01E0930A016DC0DE01CC
:1003100020E030E0AE17BF0750F412964D915C918B
:1003200013979D014115510509F1DA01F3CFB3830C
:10033000A28340815181840F951F8A179B0771F416
:100340008D919C911197840F951F029691838083C4
:1003500012968D919C911397938382832115310579
:1003600029F4F0930D01E0930C013EC0D9011396DE
:10037000FC93EE9312974D915D91A40FB51FEA1770
:10038000FB0779F480819181840F951F0296D90132
:1003900011969C938E938281938113969C938E9356
:1003A0001297E0E0F0E08A819B81009719F0FE014E
:1003B000EC01F9CFCE01029628813981820F931F7B
:1003C00020910A0130910B012817390769F4309701
:1003D00029F410920D0110920C0102C013821282B6
:1003E000D0930B01C0930A01DF91CF910895FB01D7
:1003F0009F01E8944230C4F04532B4F44A3029F405
:1004000097FB1EF4909581959F4F642F77270E944C
:100410002802805D8A330CF0895D8193CB010097BF
:10042000A1F716F45DE251931082C9010C941802F1
:10043000DC01FC01672F71917723E1F7329704C04B
:100440007C916D9370836291AE17BF07C8F30895D6
:10045000AA1BBB1B51E107C0AA1FBB1FA617B707EA
:1004600010F0A61BB70B881F991F5A95A9F7809506
:0C0470009095BC01CD010895F894FFCFD9
:0A047C0000000E0120000D0A000030
:00000001FF
